:020000040000FA
:0200000098283E
:0400080080319E287D
:02000E00A70841
:10001000031D0B280800F93000000000000000005C
:10002000FF3E031D0C28000000000000000000003F
:10003000A70B0B28080020009114911221009110A9
:10004000911623001F129F159F101F101E139E1242
:100050001E129E111E111E109D171D139D161D169A
:100060009C010F309B000800723021009900C030C5
:100070008B00911620308C0023008C0120008C0115
:1000800022009D171D1520000C16C830A700072060
:100090000C12C830A70007200C16C830A700072094
:1000A0000C12C830A70007200C16C830A700072084
:1000B0000C12C830A70007201B202000A301A401B8
:1000C000A501A60100302305A700F0302405A800F3
:1000D00000302505A90000302605AA00AB01AB0AB7
:1000E0002708003C031DAB012808103C031DAB0191
:1000F0002908003C031DAB012A08003C031DAB018D
:100100002B180C162B1C0C12A30A0319A40A031992
:10011000A50A0319A60AA10803199128A10B912881
:100120008C10A20803196228A20B62280C11622805
:100130002000A001A101A201803134282000911EDD
:100140000900230019082000AC002C08F83A031914
:10015000B328023A0319B728013A0319BC28073A11
:100160000319BE2809008C146430A10009000C1585
:100170000C146430A20009000C1409000C100900D2
:020000040001F9
:02000E00A4FF4D
:02001000FFDE11
:00000001FF
